:020000040800F2
:100000004809002099060008A7020008A902000874
:10001000AD020008B1020008B502000800000000AF
:10002000000000000000000000000000B90200080D
:10003000BB02000800000000BD020008BF0200086B
:10004000B9060008B9060008B9060008B906000894
:10005000B9060008B9060008B906000885030008BB
:10006000B9060008B9060008B9060008B906000874
:10007000B9060008B9060008B9060008B906000864
:10008000B9060008B9060008B9060008B906000854
:10009000B9060008B9060008B9060008B906000844
:1000A000B9060008B9060008B9060008B906000834
:1000B000B9060008B9060008B9060008B906000824
:1000C000B9060008B9060008B9060008B906000814
:1000D000B90600080F060008B9060008B9060008AE
:1000E000B9060008B9060008B9060008B9060008F4
:1000F000B9060008B9060008B9060008B9060008E4
:10010000B9060008B9060008B9060008B9060008D3
:10011000B9060008B9060008B9060008B9060008C3
:10012000B9060008B9060008B9060008B9060008B3
:10013000B9060008B9060008B9060008B9060008A3
:10014000B9060008B9060008B9060008B906000893
:10015000B9060008B9060008B9060008B906000883
:10016000B9060008B9060008B9060008B906000873
:10017000B9060008B9060008B9060008000000002A
:10018000B9060008B9060008B9060008B906000853
:10019000B9060008B9060008B9060008B906000843
:1001A000B9060008B9060008B906000800F002F810
:1001B00000F049F80AA090E8000C82448344AAF1B8
:1001C0000107DA4501D100F03EF8AFF2090EBAE8B6
:1001D0000F0013F0010F18BFFB1A43F0010318477B
:1001E00088360000A8360000103A24BF78C878C1CD
:1001F000FAD8520724BF30C830C144BF04680C602D
:10020000704700000023002400250026103A28BF74
:1002100078C1FBD8520728BF30C148BF0B60704778
:10022000662903F0D482002070471FB503F0C5FA99
:1002300002F0F2FA04000020002103F045F8E0602B
:100240001FBD10B510BD02F0FFFB1146FFF7EDFF1B
:1002500000F008F802F01DFC03B4FFF7F2FF03BC46
:1002600000F076F94FF4A06000F038FAB42000F006
:10027000EDF84FF4165000F078F941F61F4142F2C4
:100280000E7000F01DF800F031F80BE0002404E0DF
:10029000642000F03DF9601CC4B20A2CF8DB00F0C9
:1002A000B4F800BFF2E7704700BFFEE700BFFEE70B
:1002B00000BFFEE700BFFEE770477047704770471A
:1002C0003EB504460D460121042001F0ABFEADF819
:1002D00000500020ADF802000194ADF80800694616
:1002E000014800F08CFE3EBD0008004000B585B01E
:1002F0000121082001F04FFE0121880301F0A3FE37
:100300000220039000208DF8100002208DF81100CB
:1003100001208DF8130003A9424800F0D5FA01200E
:1003200003908DF8100000208DF8120002208DF847
:10033000110001208DF8130003A93A4800F0C4FA17
:100340000121032001F011FC0220019001208DF811
:100350000A0000208DF8080008208DF8090001A887
:1003600001F07AFF07208DF8000001208DF80300CE
:1003700002208DF801008DF80200684600F0B3F904
:1003800005B000BD10B52DED048B0A2000F078F803
:10039000022001F0C7FF002834D00021224800F0DD
:1003A00077FE0121204800F0B3FE00BF02211D4866
:1003B00000F0ECFA0028F9D100211B4800F0A8FE5B
:1003C000194800F069FE4FF4AA7100FB01F42046C1
:1003D00003F01AF99FED150B53EC102B02F0BCFF44
:1003E00002F088FF134908600846006803F074F9BA
:1003F00041EC180B53EC182B0FA001F0A9FF0220C1
:1004000001F09BFFBDEC048B10BD10B50121054828
:1004100000F0D6FA0C2000F033F80121014800F07A
:10042000D1FA10BD000C024000080040000000009E
:10043000000069400000002044697374616E6365C8
:100440003A256620636D0D0A0000000010B50446D1
:100450006FF0040000F094F9E11704EB5171C1F35F
:10046000C701394A11701046007800EB4001C1EB1A
:10047000C0104FF6FF7101EAC0003449088010BD7A
:100480000146314A12784A434FF0E0235A61002274
:100490009A611A46126942F001021A6100BF4FF0D8
:1004A000E022106900F001021AB100F48032002A43
:1004B000F5D04FF0E022126922F001024FF0E02364
:1004C0001A6100229A6170470146204A12884A4305
:1004D0004FF0E0235A6100229A611A46126942F0F5
:1004E00001021A6100BF4FF0E022106900F0010222
:1004F0001AB100F48032002AF5D04FF0E0221269E0
:1005000022F001024FF0E0231A6100229A61704745
:1005100070B504464FF4077094FBF0F0C6B24FF488
:10052000077094FBF0F100FB114085B205E04FF439
:100530000770FFF7C9FF701EC6B2002EF7D115B1C4
:100540002846FFF7C1FF70BD040000200600002010
:1005500000BF704700BF4C4A128802F04002002AD8
:10056000F9D0C2B2484B9A80704710B588B00446A3
:100570000121084601F00FFD0121102001F063FD6B
:1005800007220921414800F02AFA07220A213F48A0
:1005900000F025FA4FF4C060069002208DF81C0090
:1005A0008DF81D0000208DF81E0001208DF81F0021
:1005B00006A9364800F088F902940020ADF80C0036
:1005C000ADF80E00ADF81000ADF814000C20ADF839
:1005D000120002A92C4800F0A2FA01212A4800F0DA
:1005E00026FB012240F22551274800F0D6FB2520AA
:1005F0008DF8040003208DF805008DF80600012019
:100600008DF8070001A800F06EF808B010BD10B515
:1006100040F225511C4800F0FBFB10B31A4800F0D3
:1006200035FBC4B21A48008800F40040C8B9184825
:10063000008800F4804060B10A2C03D000201449E7
:10064000088020E01248008840F4004010490880EB
:1006500019E00D2C06D10E48008840F480400C496A
:10066000088010E00A480088C0F30D0009490C54C6
:1006700007480088401C0649088008460088C728AB
:1006800001DD0020088010BD001001400000024084
:100690000C000020200000200B48016841F470018C
:1006A00001600A480047FEE7FEE7FEE7FEE7FEE7D7
:1006B000FEE7FEE7FEE7FEE7FEE700000448054927
:1006C000034A054B7047000088ED00E0AD010008CB
:1006D0004801002048090020480100203249014318
:1006E000324A1160704770B5002100230F22C47890
:1006F0001CB32E4C246804F4E064C4F5E064C4F335
:100700000721C1F10404E3B20A4144789C40E1B2FC
:100710008478144021430C07210E254C057861553F
:10072000047804F01F050124AC4005786D11AD007C
:1007300005F1E025C5F8004109E0047804F01F0543
:100740000124AC401B4D0678761145F8264070BD5B
:10075000194A0A400243154B1B1F1A60704739B1F2
:10076000124A121D12680243104B1B1D1A6006E04C
:100770000E4A121D126882430C4B1B1D1A607047F3
:10078000042808D14FF0E021096941F004014FF03D
:10079000E022116107E04FF0E021096921F0040136
:1007A0004FF0E022116170470000FA050CED00E007
:1007B00000E400E080E100E080FFFF1F10B5044688
:1007C0009848844208D10121084601F04DFC0021DF
:1007D000012001F049FC76E09348844208D10121D0
:1007E000022001F041FC0021022001F03DFC6AE002
:1007F0008E48844208D10121042001F035FC0021FB
:10080000042001F031FC5EE08948844208D10121D6
:10081000082001F029FC0021082001F025FC52E00D
:100820008448844208D10121102001F01DFC0021E0
:10083000102001F019FC46E07F48844208D10121D4
:10084000202001F011FC0021202001F00DFC3AE0F5
:100850007A48844208D10121402001F005FC0021A2
:10086000402001F001FC2EE07548844208D10121AE
:10087000802001F0F9FB0021802001F0F5FB22E04F
:100880007048844208D10121801501F0EDFB002160
:10089000A01501F0E9FB16E06B48844208D1012164
:1008A000401501F0E1FB0021601501F0DDFB0AE0DD
:1008B0006648844207D10121001501F0D5FB0021D3
:1008C000201501F0D1FB10BDF0B50A460021002330
:1008D000002400BF3DE0012505FA01F3156805EA93
:1008E00003049C4234D105684F000326BE40B54343
:1008F000056015794E00B5400668354305601579E9
:10090000012D02D01579022D16D185684F000326DE
:10091000BE40B543856055794E00B5408668354385
:100920008560456801268E40B543456045689679E7
:100930008E40B6B235434560C5684F000326BE40C1
:10094000B543C560D5794E00B540C6683543C5602E
:10095000491C1029BFD3F0BD4FF6FF710160002183
:10096000017141718171C171704708B54FF48032D6
:100970000092009A0A430092009AC261C161009AF3
:10098000C261C2690092C269009208BD024600209D
:1009900013690B400BB1012000E0002070470146B5
:1009A000086980B270470246002053690B400BB1C2
:1009B000012000E0002070470146486980B270477E
:1009C00001837047418370470AB1018300E041838E
:1009D00070474161704742694A4042617047F0B5D3
:1009E000002300244D07ED0E02FA05F3CE1000F1AE
:1009F000200555F826504E07F70E0F26BE40B5438A
:100A0000CF1000F1200646F82750CE1000F1200547
:100A100055F8265045EA0304CE1000F1200545F8AC
:100A20002640F0BD000002400004024000080240E1
:100A3000000C024000100240001402400018024066
:100A4000001C024000200240002402400028024016
:100A500010B50446FA48844208D10121102001F063
:100A600047FB0021102001F043FB57E0F54884428A
:100A700009D10121480401F02AFB00214FF4003084
:100A800001F025FB4AE0F048844209D101218804A5
:100A900001F01DFB00214FF4802001F018FB3DE028
:100AA000EA48844209D10121C80401F010FB002169
:100AB0004FF4002001F00BFB30E0E548844209D1FF
:100AC0000121080501F003FB00214FF4801001F023
:100AD000FEFA23E0DF48844208D10121202001F002
:100AE00007FB0021202001F003FB17E0DA488442D5
:100AF00009D10121880701F0EAFA00214FF0804076
:100B000001F0E5FA0AE0D548844207D10121400509
:100B100001F0DDFA0021600501F0D9FA10BD2DE9E0
:100B2000FF4705460E460024A14600BFA046B089F7
:100B300000B100BF2C8A24F44054F08804432C8276
:100B4000AC8941F20C608443B088318908437189D3
:100B500008430443AC81AC8A24F44074B089044354
:100B6000AC82684601F046F9B548854202D0B948E2
:100B7000854202D1DDF80C9001E0DDF80890A889EB
:100B800000F4004040B109EBC90000EB09103168E6
:100B90004900B0FBF1F707E009EBC90000EB0910D1
:100BA00031688900B0FBF1F76420B7FBF0F0040175
:100BB0002009642101FB1078A88900F4004040B1AD
:100BC000322000EBC800B0FBF1F000F00700044356
:100BD00008E0322000EB08106421B0FBF1F000F0D7
:100BE0000F0004432C81BDE8FF874FF416510160CC
:100BF00000218180C18001810C21418100218181FE
:100C0000704710B502460020108A20F470600B88EF
:100C10004C8823438C882343CC8823431843108279
:100C200010BD0021018041808180C180704721B1C9
:100C3000828942F40052828104E082894DF6FF737A
:100C40001A4082817047028B02F47F420283028B3A
:100C50000A430283704721B1828942F400428281B3
:100C600003E08289C2F30E028281704721B1828A39
:100C700042F40062828204E0828A4FF2FF731A40DB
:100C800082827047C1F308028280704701468888DB
:100C9000C0F308007047028A4FF6F0731A400282D0
:100CA000028A0A430282704721B1828942F002021D
:100CB000828104E082894FF6FD731A408281704779
:100CC00082894FF2FF731A40828182890A438281AE
:100CD0007047028A4FF6DF731A400282028A0A4383
:100CE0000282704721B1028A42F48042028204E00B
:100CF000028A4BF6FF731A4002827047818941F0E5
:100D000001018181704721B1828A42F0080282820A
:100D100004E0828A4FF6F7731A4082827047028B92
:100D2000D2B20283028B42EA01220283704721B1D0
:100D3000828A42F02002828204E0828A4FF6DF73C8
:100D40001A408282704721B1828A42F01002828268
:100D500004E0828A4FF6EF731A4082827047828ADB
:100D60004FF6FB731A408282828A0A43828270475E
:100D700021B1828A42F00202828204E0828A4FF626
:100D8000FD731A40828270471AB1838A0B438382B3
:100D900002E0838A8B4383827047F0B503460024C8
:100DA00000260025002040F66A17B94200D100BF96
:100DB0001846C1F3421401F01F06012707FA06F591
:100DC000012C01D10C3004E0022C01D1103000E0E4
:100DD00014301AB107682F43076002E00768AF4379
:100DE0000760F0BD02460020B1F5007F00D100BFD2
:100DF00013880B400BB1012000E00020704701F484
:100E00000072B2F5007F00D100BFCA430280704774
:100E100070B50246002400230025002040F66A1623
:100E2000B14200D100BFC1F3421501F01F030126FA
:100E300006FA03F3012D13D19689334017E0000021
:100E4000001001400044004000480040004C0040B9
:100E5000005000400014014000780040007C004039
:100E6000022D02D1168A334001E0968A33400C12DB
:100E7000012606FA04F41688344013B10CB101209F
:100E800000E0002070BD10B50022002340F66A1477
:100E9000A14200D100BF0A1201249440A3B2DC4356
:100EA000048010BD10B50446FE48844208D10121DB
:100EB000084601F01DF90021012001F019F99DE01B
:100EC000B4F1804F08D10121084601F000F900215A
:100ED000012001F0FCF891E0F348844208D101219F
:100EE000022001F0F4F80021022001F0F0F885E082
:100EF000EE48844208D10121042001F0E8F80021E5
:100F0000042001F0E4F879E0E948844208D10121A5
:100F1000082001F0DCF80021082001F0D8F86DE08D
:100F2000E448844208D10121102001F0D0F80021CA
:100F3000102001F0CCF861E0DF48844208D10121A3
:100F4000202001F0C4F80021202001F0C0F855E075
:100F5000DA48844208D10121022001F0C9F80021B9
:100F6000022001F0C5F849E0D548844209D10121A9
:100F7000080401F0BDF800214FF4803001F0B8F80A
:100F80003CE0D048844209D10121480401F0B0F886
:100F900000214FF4003001F0ABF82FE0CA48844242
:100FA00009D10121880401F0A3F800214FF4802029
:100FB00001F09EF822E0C548844208D1012140207A
:100FC00001F085F80021402001F081F816E0C048CA
:100FD000844208D10121802001F079F8002180208D
:100FE00001F075F80AE0BB48844207D10121801561
:100FF00001F06DF80021A01501F069F810BD002284
:101000000288A84B98420ED0AC4B98420BD0B0F15E
:10101000804F08D0A44B984205D0A44B984202D0F0
:10102000A34B984204D14FF68F731A404B881A4352
:10103000A04B984207D0A04B984204D04FF6FF43F4
:101040001A400B891A4302804B68C3620B880385E0
:10105000944B984202D0994B984201D18B7A0386E7
:101060000123838270474FF0FF31416000210180EE
:1010700001814180817270470185828270470A46F2
:10108000002101884FF68F7319401143018070478A
:1010900041627047C16270470146486A7047014625
:1010A000088D704721B1028842F00202028004E0FC
:1010B00002884FF6FD731A400280704721B1028802
:1010C00042F00402028004E002884FF6FB731A40EB
:1010D0000280704721B1028842F08002028004E061
:1010E00002884FF67F731A400280704702884FF6DD
:1010F000F7731A40028002880A4302807047028810
:101100004FF6FF431A40028002880A43028070476C
:1011100021B1028842F00102028004E002884FF609
:10112000FE731A400280704770B50024002200232D
:10113000058C4FF6FE7635400584028C8388048B3F
:101140004FF68F752C40B51E2C400D882C43751E14
:101150002A408D892A434D882A43524DA84202D005
:10116000564DA84213D14FF6F7752A40CD892A4330
:101170004FF6FB752A408D882A434FF6FF652B40BA
:101180004FF6FF552B400D8A2B434D8A2B4383800E
:1011900004838D684563028470BD70B5002400220D
:1011A0000023058C4FF6EF7635400584028C83884A
:1011B000048B48F6FF752C404FF6FF452C400D88F8
:1011C0004FF6FF7606EA05252C434FF6DF752A40D9
:1011D0008D8906EA05152A434D8806EA05152A4336
:1011E000304DA84202D0354DA8421DD14FF67F7533
:1011F0002A40CD894FF6FF7606EA05152A434FF6B9
:10120000BF752A408D8806EA05152A434FF6FF353B
:101210002B404FF2FF752B400D8A06EA85052B43C4
:101220004D8A06EA85052B43838004838D68856398
:10123000028470BD70B5002400220023058C4FF697
:10124000FF6635400584028C8388848B4FF68F754A
:101250002C404FF6FC752C400D882C434FF6FF5563
:101260002A408D894FF6FF7606EA05252A434D88E8
:1012700006EA05252A430B4DA84202D00F4DA8428D
:1012800038D14FF2FF752A40CD894FF6FF7606EA36
:1012900005252A434FF6FF352A408D8806EA0525A5
:1012A0002A4319E00000014000040040000800400B
:1012B000000C0040001000400014004000040140F9
:1012C0000040014000440140004801400018004037
:1012D000001C0040002000404EF6FF752B404DF6EC
:1012E000FF752B400D8A06EA05152B434D8A06EA49
:1012F00005152B43838084838D68C563028470BD8C
:1013000070B5002200230024058C4EF6FF76354090
:101310000584038C8488828B48F6FF752A404FF63B
:10132000FF452A400D884FF6FF7606EA05252A4339
:101330004DF6FF752B408D8906EA05352B434D8808
:1013400006EA05352B43FE4DA84202D0FD4DA842CA
:1013500008D14BF6FF752C400D8A4FF6FF7606EA52
:1013600085152C43848082838D680564038470BD59
:10137000002101804180818081608181C181018261
:101380004182704770B5034600200024184618308B
:1013900001258D40ACB21D8CA5431D8409B10829DF
:1013A0000AD100EB610005684FF68F763540056085
:1013B0000568154305600FE00D1FC5F34E05284471
:1013C000056848F6FF763540056005684FF6FF76FC
:1013D00006EA02263543056070BD416370478163AC
:1013E0007047C1637047016470470A460021018B52
:1013F0004FF68F7319401143018370470A4600214D
:10140000018B48F6FF7319404FF6FF7303EA02237E
:101410001943018370470A460021818B4FF68F7371
:1014200019401143818370470A460021818B48F699
:10143000FF7319404FF6FF7303EA022319438183B8
:1014400070470A460021018B4FF6F773194011438C
:10145000018370470A460021018B4FF2FF73194048
:101460004FF6FF7303EA02231943018370470A46CC
:101470000021818B4FF6F773194011438183704728
:101480000A460021818B4FF2FF7319404FF6FF731C
:1014900003EA02231943818370470A460021018B26
:1014A0004FF6FB7319401143018370470A46002130
:1014B000018B4FF6FF3319404FF6FF7303EA022307
:1014C0001943018370470A460021818B4FF6FB7355
:1014D00019401143818370470A460021818B4FF6E2
:1014E000FF3319404FF6FF7303EA02231943818348
:1014F00070470A460021018B4FF67F731940114354
:10150000018370470A460021018BC1F30E014FF69B
:10151000FF7303EA02231943018370470A4600213F
:10152000818B4FF67F7319401143818370470A46C0
:101530000021818BC1F30E014FF6FF7303EA0223F2
:101540001943818370470A460021018C4FF6FD73D1
:1015500019401143018470470A460021018C4FF65F
:10156000F77319401143018470470A460021018C2A
:101570004FF6DF7319404FF6FF7303EA0213194366
:10158000018470470A460021018C4FF67F73194091
:101590004FF6FF7303EA02131943018470470A46AA
:1015A0000021018C4FF6FF5319404FF6FF7303EAF9
:1015B00002231943018470470A460021018C4FF22F
:1015C000FF7319404FF6FF7303EA022319430184A6
:1015D00070470A460021018C4DF6FF7319404FF603
:1015E000FF7303EA023319430184704730B50023C7
:1015F00001248C40A3B2048C9C430484048C02FA22
:1016000001F5ADB22C43048430BD30B50023042471
:101610008C40A3B2048C9C430484048C02FA01F530
:10162000ADB22C43048430BD828B4FF2FF331A409D
:101630008283828B4FF6FF7303EA01231A4382836E
:101640007047F0B50C461546002100220026078C95
:101650004EF6FF7C07EA0C070784818B028C4FF65D
:10166000FF7707EA043640F6FF4739404FF6FF7729
:1016700007EA052739434FF6FF7707EA033739436F
:1016800045F6FF773A4046F480573A438183028417
:10169000F0BD828B4FF6F3731A408283828B0A432C
:1016A00082837047F0B50C461546002100220026C3
:1016B000078C4FF6FF6C07EA0C070784818B028CBE
:1016C0004FF6FF7707EA04264FF60C7739404FF6BE
:1016D000FF7707EA03172F4339434FF2FF573A408A
:1016E00046F480773A4381830284F0BD028B4FF247
:1016F000FF331A400283028B4FF6FF7303EA012384
:101700001A4302837047F0B50C46154600210022AB
:101710000026078C4FF6EF7C07EA0C070784018B45
:10172000028C4FF6FF7707EA041640F6FF47394070
:101730004FF6FF7707EA033739434FF6FF7703E0A9
:10174000000001400004014007EA052739434FF635
:101750005F773A4046F010073A4301830284F0BDB8
:10176000028B4FF6F3731A400283028B0A43028303
:101770007047F0B50C46154600210022068C4FF646
:10178000FE773E400684018B028C4FF60C7631408A
:101790007E1C06EA03162E4331434FF6F57632409F
:1017A00044F00106324301830284F0BD70B5054662
:1017B0000C46208850B92389A28861882846FFF703
:1017C000D8FFE1882846FFF7CBFF25E020880428D2
:1017D0000AD12389A28861882846FFF794FFE1880F
:1017E0002846FFF783FF17E0208808280AD12389BD
:1017F000A28861882846FFF755FFE1882846FFF751
:1018000048FF09E02389A28861882846FFF719FF6D
:10181000E1882846FFF708FF70BD00210180418064
:10182000012181800021C180018170472DE9F041B3
:1018300005460C4600260127608808B9022600E00C
:101840000026A088012801D1022700E00127208876
:10185000A0B92389A28861882846FFF78AFFE1881A
:101860002846FFF77DFF23893A4631462846FFF791
:101870004AFFE1882846FFF739FF13E02389A28851
:1018800061882846FFF73FFFE1882846FFF72EFFD3
:1018900023893A4631462846FFF76BFFE188284600
:1018A000FFF75EFFBDE8F0810146486B70470146D7
:1018B000886B70470146C86B70470146086C7047DB
:1018C0000A884B881A438B881A43CB881A430B89A2
:1018D0001A434B891A438B891A43A0F84420704756
:1018E0000021018041808180C1800181418181810D
:1018F000704731B1B0F8442042F40042A0F84420CF
:1019000005E0B0F84420C2F30E02A0F8442070476E
:1019100021B1828842F00402828004E082884FF67E
:10192000FB731A408280704721B1828842F0010225
:10193000828004E082884FF6FE731A4082807047EE
:101940001AB183890B43838102E083898B438381AE
:1019500070478182704702460020138A0B400BB10A
:10196000012000E000207047CA430282704730B572
:101970000246002000230024158A05EA0103958908
:1019800005EA010413B10CB1012000E0002030BDD4
:10199000CA430282704741EA0203A0F84830704708
:1019A0001AB183890B43838102E083898B4383814E
:1019B000704721B1828842F00802828004E0828868
:1019C0004FF6F7731A408280704701894FF6F8721C
:1019D0001140018170470A46002101894FF68F733B
:1019E000194011430181704730B504460D46294620
:1019F0002046FFF7F0FF208940F00700208130BD2E
:101A00002DE9F04104460D4616461F46602D06D1CD
:101A10003B46012231462046FFF775FE05E03B4676
:101A2000012231462046FFF7A4FE29462046FFF753
:101A3000D2FF208940F007002081BDE8F08130B559
:101A40000C4600210189C9B24FF6FF7505EA03254E
:101A5000154325432943018130BD2DE9F041054659
:101A60000E4617469846002443463A4631462846D5
:101A7000FFF7E5FF2C894FF6F870044044F00704A7
:101A80004FF68F70044044F070042C81BDE8F08163
:101A9000F0B504460D4616461F463B4632462946DB
:101AA0002046FFF7CCFF208940F480402081F0BD24
:101AB00082884FF68F731A40828082880A43828020
:101AC000704702894FF6F8731A40028102890A436F
:101AD0000281704702894FF67F731A4002810289A2
:101AE0000A4302817047F0B50C4615461E46002198
:101AF000002200230189028B038C4FF6F8773940CE
:101B000021434FF6FC473A4040F201173A434FF663
:101B1000DD773B404FF6FF7707EA06172F433B433D
:101B2000018102830384F0BD21B1828842F08002EA
:101B3000828004E082884FF67F731A40828070476B
:101B4000A0F850107047000010B50121880300F084
:101B5000CFFA00214FF4804000F0CAFA10BD1C49B2
:101B6000086070471B490862704730B500228B0738
:101B70001C0F0F2303FA04F2154B08338C1053F893
:101B800024309343124C08348D1044F825302346FA
:101B90008C1053F824308C07240F00FA04F42343EC
:101BA0000B4C08348D1044F8253030BD0949DC3128
:101BB00008607047084908607047002004492031D8
:101BC000096801F4807109B1012000E0002070472C
:101BD000003801400000274200042742F648006810
:101BE00040F00100F44908600020F3490831086022
:101BF000F1480068F1490840EF490860F048091DC4
:101C00000860F048EC4984310860ED481038091D3F
:101C10000860E948006820F48020E7490860002057
:101C2000E5490C310860E4498C31086070470021B7
:101C3000E14A921C117011460870704710B50146B8
:101C40000022002300204A11012A02D1DA4C236825
:101C500008E0022A03D1D84C7034236802E0D64C45
:101C60007434236801F01F02012494401C400CB11D
:101C7000012000E0002010BD38B5002000900024B5
:101C8000002500BF3120FFF7D9FF05460098401C12
:101C900000900098B0F5A04F01D0002DF2D0312077
:101CA000FFF7CCFF08B1012400E00024204638BD36
:101CB00001460020C04A106820F0F80040EAC10048
:101CC00010607047C049086070470021BA4A7032FE
:101CD00011701170012802D004280AD104E00121FA
:101CE000B54A7032117005E00521B34A70321170A7
:101CF00000E000BF00BF7047B4490860704770B58E
:101D0000049C41EA82150126C6EB530645EA0645C6
:101D1000054345EA0465A84E361D356070BDAA49E5
:101D20000866704710B5830143EA016343EA027312
:101D3000A14C8434236010BDA3498866704710B558
:101D4000830143EA016343EA02739B4C88342360B6
:101D500010BD9D49086770479B49C864704702469B
:101D60000020954B0833186820F0EC6042EA01032C
:101D70001843914B083318607047024600208E4B81
:101D80000833186820F0784042EA010318438A4B70
:101D900008331860704701460020874A08321068EF
:101DA00020F0030008431060704783480830006843
:101DB00000F00C007047014600207F4A083210688E
:101DC00020F0F000084310607047014600207A4A76
:101DD0000832106820F4E050084310607047014654
:101DE0000020754A0832106820F4604040EAC100C3
:101DF00010607047F0B50021002200240225002663
:101E000002236D4F08373F6807F00C0121B1042908
:101E100005D0082937D105E06D4F076036E06D4FDA
:101E2000076033E0644F3F1D3F68C7F38056624F41
:101E30003F1D3F6807F03F036EB1664FB7FBF3F7F6
:101E4000DFF874C10CF1040CDCF800C0CCF3881C82
:101E500007FB0CF40CE05E4FB7FBF3F7DFF858C15B
:101E60000CF1040CDCF800C0CCF3881C07FB0CF46C
:101E7000514F3F1D3F68C7F301477F1C7D00B4FBF6
:101E8000F5F7076002E0524F076000BF00BF4A4FFE
:101E900008373F6807F0F00109094F4F7A5C07687F
:101EA000D7404760444F08373F6807F4E051890A3C
:101EB000494F7A5C4768D74087603F4F08373F6893
:101EC00007F46041490B444F7A5C4768D740C760CC
:101ED000F0BD002100F44072B2F5407F0AD1364ACD
:101EE0000832116821F4F8113C4A02401143324A89
:101EF00008321160304A70321268C0F30B031A4383
:101F00002D4B70331A607047304944390860704770
:101F10002E494039086070473149086070470146D2
:101F20000020254A8C32106820F01F004A1E104302
:101F3000214A8C3210607047014600201E4A8C32C4
:101F4000106820F4F8504A1E40EA02201A4A8C32E7
:101F50001060704701460020174A8C32106820F448
:101F6000401008431060704701460020124A8C322E
:101F7000106820F4400008431060704701460020BC
:101F80000D4A8C32106820F44030084310607047CE
:101F900014490860704739B1074A30321268024369
:101FA000054B30331A6006E0034A30321268824330
:101FB000014B30331A60704700380240FFFFF6EAE9
:101FC000103000240030002000004742800E4742BD
:101FD0000024F40000127A000E000020FFFCFF0F26
:101FE0005C014742E011474229B1934A126802431B
:101FF000914B1A6004E0904A126882438E4B1A603B
:10200000704739B18C4A121D126802438A4B1B1D5E
:102010001A6006E0884A121D12688243864B1B1D17
:102020001A60704739B1844A0C3212680243824BFD
:102030000C331A6006E0804A0C32126882437E4BF1
:102040000C331A60704739B17B4A10321268024370
:10205000794B10331A6006E0774A103212688243D7
:10206000754B10331A60704739B1734A243A1268BD
:102070000243714B243B1A6006E06F4A243A12680F
:1020800082436D4B243B1A60704739B16A4A203A4B
:1020900012680243684B203B1A6006E0664A203A09
:1020A00012688243644B203B1A60704739B1624A20
:1020B0001C3A12680243604B1C3B1A6006E05E4A01
:1020C0001C3A126882435C4B1C3B1A60704739B162
:1020D000594A143A12680243574B143B1A6006E0FF
:1020E000554A143A12688243534B143B1A607047A6
:1020F00039B1514A103A126802434F4B103B1A60F3
:1021000006E04D4A103A126882434B4B103B1A606E
:10211000704739B1484A1C3212680243464B1C339F
:102120001A6006E0444A1C3212688243424B1C3358
:102130001A60704739B1404A2032126802433E4B60
:1021400020331A6006E03C4A2032126882433A4B40
:1021500020331A60704739B1374A2432126802437B
:10216000354B24331A6006E0334A24321268824326
:10217000314B24331A60704739B12F4A2C32126820
:1021800002432D4B2C331A6006E02B4A2C32126886
:102190008243294B2C331A60704739B1264A3032BA
:1021A00012680243244B30331A6006E0224A303270
:1021B00012688243204B30331A607047012808D1DF
:1021C0001D493C31096841F008011B4A3C3211604D
:1021D00007E019493C31096821F00801164A3C32F0
:1021E0001160704739B1144A273A12780243124BF2
:1021F000273B1A7006E0104A273A127882430E4BAA
:10220000273B1A7070470C484030006840F08070DF
:10221000094940310860704701460020064A283AC3
:1022200012680A400AB1012000E00020704702490C
:1022300026390870704700003438024000204149B8
:102240000860091D0860091D0860091D08603E48F6
:102250003C4914310860704700213A498279002ACC
:102260003AD00A46126803689A430B461A600A1D60
:10227000126803689A430B1D1A60027911440A68B8
:1022800003681A430A602F4A0832126803689A43A7
:102290002C4B08331A601A1D126803689A43294BA5
:1022A0000C331A604279102A0ED11A1F1268036883
:1022B0001A43244B08331A601A1D126803681A4324
:1022C000204B0C331A600DE01E49427911440A6814
:1022D00003681A430A6005E0027911440A6803683A
:1022E0009A430A6070470021016001710C2141711D
:1022F0000021817170471349103109680143114A67
:10230000103211607047014600200E4A14321268E4
:102310000A400AB1012000E0002070470949143149
:102320000860704701460020064A143212680A40CD
:102330000AB1012000E00020704702491431086012
:1023400070470000003C0140FFFF7F007047000025
:102350000FB4044910B503AA029800F04BFA10BC60
:102360005DF814FB080000202DE9F0410E460446FC
:10237000002020622046E168884730B3252805D038
:10238000D4E901219047206A401CF2E7E168204629
:1023900000278847050018D0A5F14100192802D868
:1023A00020354FF400673246294620462760FDF766
:1023B00037FF40B1012804D0F61D26F00706083685
:1023C000D8E7361DD6E72846DAE7206ABDE8F0816F
:1023D000704770477047704770472DE9FF4F0C46B4
:1023E0001E464FF0FF378BB0D2E90001DDF8608068
:1023F0000A908A46C1F30A5505B93D4600210846B0
:102400004FF00000BAF1000F00F4400005DA00EBD5
:1024100080004FF4400101EA50004FEA9059B9F1B1
:10242000010F00DDB9460A9850EA4A000ED044F682
:102430001050A5F2FF3545432F14B8F1000F1ED000
:102440007542291E1EDDC9F100021CE0B8F1010F22
:102450004FF0000001D0302103E0F24305E02154A9
:10246000401CB042FBDB30460022002121540B9976
:10247000C1F80880C1E900200FB0BDE8F08FBD1B96
:102480006D1CDEE74A4600DA694206A800F066FAEB
:1024900006AB93E8070003AB83E8070050460A99B0
:1024A00000F03EFB8DE80700A0F500501F380090BB
:1024B0000398002D09DD42F21F014A46084403A992
:1024C0000390684600F09DFD08E0A0F500504A46E4
:1024D0001F3803A90390684600F0A7FD8DE80700A8
:1024E0000004000C03D04FF0FF30410800E010461C
:1024F000B8F1000F03D00022009215461EE0751EB1
:1025000005D400F08DF9303262556D1EF9D5B34611
:102510000122084302D000227F1C04E020783028EA
:1025200001D100227F1E002A099786D01DE0112DBF
:1025300007DA00F075F9303262556D1C50EA01027D
:10254000F5D1084302D00098C8B10EE00021681E02
:1025500005E0235C625C63542254401E491C8142A6
:10256000F7DBAB46A81B401E0990002004F80B00C7
:102570000B98099AC0F80880C0E9002B7CE7112667
:102580004FF0000859E72DE9F04F88460446D21D68
:1025900022F0070191B0D1E90001CDE90A0100F074
:1025A0007AFE02460B98C00F01D02D2007E020686C
:1025B000810701D52B2002E0202101EAC000032A77
:1025C000099001D0072A05DB03464146204600F06A
:1025D00085F90BE12078800601D5E06900E006204E
:1025E000B8F1650F814606D0B8F1660F18D0B8F182
:1025F000670F70D131E00020B9F1110F009001DBBD
:10260000112301E009F101030AAA01A90CA8FFF7AF
:10261000E4FEDDE90C70002609F10105834647E080
:1026200001204B4600904FF000470AAA01A90CA8D0
:10263000FFF7D3FEDDE90DB00C995D46002610B919
:1026400009F101000D18B9EB050003D4C0F1FF3604
:1026500009F10105A5EB09002BE0B9F1010F01DA41
:102660004FF001090020B9F1110F0090484601DD3B
:10267000112300E003460AAA01A90CA8FFF7ADFE4A
:10268000DDE90C704D4600268346207800070AD409
:10269000AB4500DA5D4601A8012D04DD411911F8B2
:1026A000011C302907D04F4502DA17F1040F04DA74
:1026B000012082460FE06D1EEEE7002F02DCED1BCD
:1026C0003E4403E0781CA84200DD7D1CB81B00F1ED
:1026D000010A4FF000472078000703D4AA4501DB28
:1026E0004FF0FF3A0021B7F1004F0DF143088DF88C
:1026F000431024D002202B23002F01DA7F422D2308
:102700000A21021EA0F1010000DC5FB197FBF1FC81
:1027100097FBF1F201FB1C7C17460CF1300C08F81A
:1027200001CDEEE7A8F1010003702188090501D56C
:10273000452100E06521A0F1010800F8011C09987D
:102740000FA9A1EB0807FF1D00B10120411901EB02
:10275000EA70A1693844081A401EA0612078C006BA
:1027600002D42046AFF30080099828B1D4E90121B2
:102770009047206A401C20622078C00622D520465F
:10278000AFF300801EE0002E04DBB34502DD01A89C
:10279000805D00E03020D4E901219047206A401C90
:1027A0002062761CAAF101005FEA000A0AD100F05B
:1027B00033F8C0680168405CD4E901219047206A81
:1027C000401C2062281EA5F10105DCDC07E0D4E9ED
:1027D000012118F8010B9047206A401C2062381E26
:1027E000A7F10107F3DC2046AFF30080032011B00E
:1027F00043E60000074B70B50D467B4400F05BF8E4
:102800000446284600F018F910B14FF0FF3070BDB3
:10281000204670BD57DDFFFF0048704708010020CB
:1028200030B5B0F10A024FEA900E71F100034EEAA2
:10283000817EB0EB0E0061EB91014FEA101E4EEA73
:10284000017E10EB0E0041EB11114FEA102E4EEA03
:10285000016E10EB0E0041EB11214FEA104E4EEAD3
:10286000014E10EB0E0041EB1141401841F1000107
:102870004FEAD00040EA41704FEAD10110EB8005E9
:102880004FEA810444EA907444EB01046D1944EB6F
:102890000404521BA3414FF0000348BF0A3200D585
:1028A00030BD401C41F1000130BD000001694A1CEF
:1028B00002610878704700B58FB0CDE90131002181
:1028C000059105497944CDE9031011466846FFF7A3
:1028D0004BFD0FB000BD0000E5FFFFFF2DE9F0410B
:1028E0001F46044603260168072A01F4006004DB42
:1028F00008B116A505E016A503E008B115A500E08E
:1029000015A521F010002060A069C01EA0610FB1C4
:10291000401EA0612046AFF300804FB1D4E90121F1
:1029200038469047206A401C2062C01C206206E0A6
:10293000206AFAE7D4E9012115F8010B9047761EC9
:10294000F8D22046AFF30080BDE8F0814E414E0042
:102950006E616E00494E4600696E66002DE9F047D3
:10296000814616468AB0334878440DC88DE80D007C
:1029700030487844801C03AC0DC884E80D0041F653
:102980009B300844372190FBF1F290FBF1F5A5F163
:10299000800501FB12041B3C02D56442012000E0CB
:1029A0000020DFF890A080460027FA44AAF1BE0A72
:1029B0000DE0E00709D03246684607EB47010AEB15
:1029C000810100F032FB8DE8070064107F1C002CB1
:1029D000EFD1184F7F44AC3F18E0E80714D007EB65
:1029E00004100DF1180A90E80E008AE80E00C06885
:1029F000F04201D198190890324606A903A800F0C8
:102A000014FB03AB83E807006D10641C002DE4D1B8
:102A100032466946B8F1000F03A802D000F0F1FA7F
:102A200001E000F002FBC9E90001C9F808200AB082
:102A3000BDE8F087E40E0000007B00F080007047E6
:102A400000487047E80000207546FFF7F9FFAE46E2
:102A500005006946534620F00700854618B020B5AA
:102A6000FDF72CFEBDE820404FF000064FF00007B8
:102A70004FF000084FF0000B21F00701AC46ACE826
:102A8000C009ACE8C009ACE8C009ACE8C0098D4693
:102A900070470446AFF300802046FDF7DDFB0000E1
:102AA0004FF0013C50F8042B51F8043B9A4221D1DD
:102AB000A2EB0C03934313EACC1317D150F8042B69
:102AC00051F8043B9A4215D1A2EB0C03934313EA4D
:102AD000CC130BD150F8042B51F8043B9A4209D186
:102AE000A2EB0C03934313EACC13DBD04FF00000AE
:102AF000704700BFD01A01BAB1FA81F101F0180194
:102B000022FA01F0CB40C1F12001DBB2C0B2C01A01
:102B10002CFA01F3D11A914311EAC311E6D170479F
:102B20005FEA400C08BF91F0000F4FEA8C234FEA98
:102B3000C12243EA51514FEA1C5018BF00F5F04042
:102B40004FEA300018BF41F000415FEA6C5C00F0D2
:102B50002980BCF1FF3F08BF40F080407047130C54
:102B600006BF12044FF0100C4FF0000C130E04BF00
:102B700012020CF1080C130F04BF12010CF1040C2B
:102B8000930F04BF92000CF1020CD30F04BF52004C
:102B90000CF1010C11464FF00002A0F11F00A0EB58
:102BA0000C00704711F0004F08BF704731F0004132
:102BB0003FF4D5AF0B0C06BF09044FF0100C4FF0DB
:102BC000000C0B0E04BF09020CF1080C0B0F04BF24
:102BD00009010CF1040C8B0F04BF89000CF1020CED
:102BE000CB0F04BF49000CF1010CCCF12003A0EB8A
:102BF0000C0022FA03F302FA0CF241EA030100F19D
:102C00000100704720F07F4C80EA030023F07F47EB
:102C1000ACEB070303F57C5300F0004003F1FF0326
:102C20002DE980494FEA154B09B44FEA144325EAD0
:102C30000B4E24EA03480FF2042606EB132749083B
:102C40003E785FEA320203FB0667C7F5000707FB21
:102C500006F64FEA54374FEAD64606F1020607FB5E
:102C6000066CCCF1005C4FEA1C472CEA074C07FBD2
:102C700006F40CFB06F504EB15464FEA961634BF36
:102C800000204FF000404FEAD13706FB07FC4FEA27
:102C90001C4C0CFB0BF7D21B03FB0CF761EB070181
:102CA0000CFB0EF7B0EB074072EB17420CFB08F77A
:102CB00034BFA2EB0742B2EB074261EB17414FEA88
:102CC0000C444FEA910706FB07FC4FEA1C4C0CFB37
:102CD0000BF7B0EBC74072EB573203FB0CF734BF76
:102CE000A2EBC742B2EBC74261EB57310CFB0EF7C8
:102CF000B0EBC70072EB57720CFB08F734BFA2EBC6
:102D0000C702B2EBC70261EB5771039F4FEA8161C3
:102D100041EA921104EBCC044FEAD1374FEA8262C8
:102D200006FB07FC42EA90124FEA80604FEA1C4C17
:102D30000CFB0BF7D21B03FB0CF761EB07010CFB41
:102D40000EF7B0EB074072EB17420CFB08F734BFED
:102D5000A2EB0742B2EB074261EB17414FEA8C55F9
:102D60004FEA910704EB9C2406FB07FC4FEA1C4C3E
:102D70000CFB0BF7B0EBC74072EB573203FB0CF7C1
:102D800034BFA2EBC742B2EBC74261EB57310CFB39
:102D90000EF7B0EBC70072EB57720CFB08F734BFAD
:102DA000A2EBC702B2EBC70261EB577115EB4C25E2
:102DB0004FEA816141EA92114FEA82624FEAD137CC
:102DC00042EA901206FB07FC44F100044FEA8060DF
:102DD0004FEA1C4C0CFB0BF7D21B03FB0CF761EB0F
:102DE00007010CFB0EF7B0EB074072EB17420CFB30
:102DF00008F734BFA2EB0742B2EB074261EB174181
:102E000015EB1C154FEA813141EA92414FEA8232BB
:102E100042EA90424FEA80304FEA0C7644F10004D7
:102E200048EA03434EEA0B484FF0000EB2EB080CA1
:102E300071EB030724BF624639464EEB0E0E4FF08E
:102E4000000B0018524149414BEB0B0BB2EB080C45
:102E500071EB03077BF1000B24BF624639464EEB52
:102E60000E0E4FF0000B0018524149414BEB0B0B7B
:102E7000B2EB080C71EB03077BF1000B24BF624639
:102E800039464EEB0E0E51EA020718BF46F0010616
:102E900016EB0E7655F1000254F1000103D5BDE8A2
:102EA0008901BDE80088BDE88901BDE80048B61980
:102EB000524141EB0101A3F10103704780807F7E05
:102EC0007D7C7B7A797877767675747372717170A0
:102ED0006F6E6E6D6C6C6B6A6A6968686766666552
:102EE0006464636362616160605F5F5E5E5D5D5CE0
:102EF0005C5B5B5A5A595958585757565655555551
:102F00005454535352525251515050504F4F4F4EB0
:102F10004E4D4D4D4C4C4C4B4B4B4A4A4A494949FE
:102F20004848484747474746464645454544444440
:102F3000444343434342424242414141002B26D451
:102F4000770021D01CB54FEA370703B44FF01000CB
:102F50004FF010014FF000000FBCBDE810400BF126
:102F6000010BBBF1010F08BF5FEA170722BF12F187
:102F7000010211F101014FF0004143F1000300F0A3
:102F8000004043EA00007047F9D35708DAE746EA01
:102F9000064613F1400F4FEA16461FDD13F1200FCE
:102FA000DFBF16430A46002120335B42C8D0C3F17D
:102FB000200746EA064602FA07F74FEA164646EAAF
:102FC0000706C3F1200722FA03F201FA07F721FAF4
:102FD00003F14FF0000342EA0702B1E746EA0206B6
:102FE00046EA06464FEA164646EA0106BCBF46EAEE
:102FF0000646360C4FF000034FF000024FF0000180
:103000009EE72DE9C048934630B491E8380007C8E0
:1030100031EA400C48BF34EA430C03D5FFF7F2FD18
:10302000FFF78CFFF0BCBDE800882DE9C04893464F
:1030300030B491E8380007C810F0804F08BF13F093
:10304000804F03D100F005F8FFF778FFF0BCBDE832
:10305000008820F07F4780EA030023F07F4C07EBD5
:103060000C03A3F57C5300F00040A3F1FE0392F0A3
:10307000000F00F0B38095F0000F00F077802DE98D
:1030800001494FEA11404FEA144621EA004800FB8B
:1030900006FC24EA064708FB06F607FB08F800FBD7
:1030A00007F718EB06484CEB164C4FEA124B18EB9F
:1030B00007484FEA15464CEB174022EA0B4E0BFB34
:1030C00006FC25EA06470EFB06F607FB0EFE0BFB89
:1030D00007F71EEB064E4CEB164C4FF000061EEBAE
:1030E000074E4CEB174B18EB0B0840F1000018EBA8
:1030F0000E0B58EB000840F100008F1A4FF0000152
:103100003CBFC943661B14BFB5EB040C00213CBF98
:10311000C943F61B4FEA17444EEA8E0E27EA0445D0
:103120004FEA1C4704FB07622CEA074C05FB07F734
:103130000CFB05F604FB0CFC16EB074642EB1742B2
:1031400016EB0C4642EB1C421BEB060658EB020248
:10315000414146EA9E0601D5BDE80189B6195241B2
:1031600041EB0101A3F10103BDE801894FEA1445D8
:103170004FEA114724EA054621EA074C05FB07F40C
:1031800006FB07F70CFB06F105FB0CFC11EB0741F6
:1031900044EB17444FEA124711EB0C4144EB1C443B
:1031A00022EA074C05FB07F206FB07F70CFB06F6C5
:1031B00005FB0CFC16EB074642EB174216EB0C46E0
:1031C00042EB1C456A1854F1000148BF7047B6191C
:1031D000524141EB0101A3F10103704795F0000F4B
:1031E00037D04FEA11424FEA144721EA024624EA57
:1031F000074C02FB07F106FB07F70CFB06F402FB8A
:103200000CFC14EB074441EB17414FEA154714EB54
:103210000C4441EB1C4125EA074C02FB07F506FB79
:1032200007F70CFB06F602FB0CFC16EB074645EB1A
:10323000174516EB0C4645EB1C42121951F10001E3
:1032400048BF7047B619524141EB0101A3F1010398
:1032500070474FEA14454FEA114724EA054621EA30
:10326000074C05FB07F106FB07F70CFB06F24FF0D6
:10327000000605FB0CFC12EB074241EB174112EB79
:103280000C4251EB1C4148BF7047921841EB0101C1
:10329000A3F10103704703B401984100009850EA7C
:1032A000C12018BF04204A0D18BF40F0010040F2B1
:1032B000FF72B2EB515F08BF40F00200012808BF67
:1032C000052002B07047000010B500290AD0087828
:1032D000002807D005487844FFF7E2FB002801D01A
:1032E000002010BD0248784410BD0000B205000067
:1032F000AA05000021F00042A2F16052B2F5801F41
:1033000001F0004328BFD2F17F6C0BD95FEA001CAB
:1033100043EAC20242EB507018BF704728BF20F04A
:1033200001007047B2F5801FBCBF184670474FEAD6
:10333000410C1CF5001F02D2084600F043BA70B5DC
:1033400000F075F900000089FFF7F6BF4FF000406C
:10335000A0F58000704700002DE9C04130B4DFF8CF
:10336000A0C23CEA111418BF3CEA131400F0EC8030
:1033700081EA03051CEA111444EAD57418BF1CEA5B
:10338000131500F0C780A4EB05044FF0004545EA93
:10339000C12145EAC32341EA505143EA525304F1A3
:1033A0007F74994204F500344FEAC0204FEAC222EC
:1033B00008BF904200F09C804FEA13650FF2401660
:1033C000765D4FEA134506FB05F7C7F1807706FBEC
:1033D00007F74FEAD737A7FB03687642C8F580386E
:1033E000A7FB06CE38BFA8F1010807FB08E64FF09F
:1033F000000EA6FB028CE6FB03CEDCF1000CCEF146
:10340000004E38BFAEF1010EA6FB0C584FF000077E
:103410004FF00005E6FB0E87A1FB08C6A0FB07CE18
:1034200016EB0E0645F10005E1FB076515F1E04ED0
:103430007EBFA4F580345FEA46066D4116F1800731
:1034400045F100054FEA17274FEA066647EA056788
:10345000A6F1DE46B6F1805F4FEA15251FD9384642
:1034600024F0010C05EBC471BCF1FE6F01EB0C11F3
:1034700002D8F0BCBDE8008124425CBF01F5801E8B
:103480009EEAC47F02D4F0BCBDE80081244238D457
:10349000F0BCA1F1C041BDE8004100F016B94FEA0F
:1034A000D22242EA43524FEAD323A7FB02864FEAD5
:1034B000D02040EA415007FB03661EEA0E0F4FEA98
:1034C000D12105FB026658BFA6EB0056B6EB0056AD
:1034D0004FEA520E4EEAC37E18EB0E0E56EB530E19
:1034E000BDD518EB02085E417F1C55F10005B6E71B
:1034F0004FF480154FF000074FF000064FF0000822
:10350000ADE7F0BC4FF0000001F1C04101F0004117
:10351000BDE8008111EA0C1F0CEA131500D00CE085
:1035200013EA0C1F00F025804FF00000F0BC81EA88
:10353000030101F00041BDE80081F0BCBDE800419D
:1035400081EA030100F0C1B8F0BCBDE8004170B5EC
:1035500000F06DF8097EFC3E00F007B881EA030137
:103560004FF0000001F00041704781EA030100F0D4
:10357000ACB8F0BCBDE800414FF0000021497047F5
:10358000FFFDFBF9F7F5F4F2F0EEEDEBE9E8E6E428
:10359000E3E1E0DEDDDBDAD8D7D5D4D3D1D0CFCDAF
:1035A000CCCBCAC8C7C6C5C4C2C1C0BFBEBDBCBBE8
:1035B000BAB9B8B7B6B5B4B3B2B1B0AFAEADACABE3
:1035C000AAA9A8A8A7A6A5A4A3A3A2A1A09F9F9EBD
:1035D0009D9C9C9B9A99999897979695959493936F
:1035E000929191908F8F8E8E8D8C8C8B8B8A898906
:1035F0008888878786858584848383828281818089
:103600000000FF070000F87FB0FA80F310FA03F122
:103610000AD0C3F11D0303F580634FEA41504FEA1E
:10362000035202EBD12170474FF0000070470EF1BA
:10363000020E2EF0030E5EF8046B364205D4012A0A
:1036400043EB030515F5001F12D8012841EB010CCF
:103650001CF5001F0CD80ED14FEAD17C15F5001FC8
:103660000CEB4C0C0CF1020C08BF4CEBD37C04E0CF
:103670004FF0080C01E04FEAD37C0CEB4C0526FA26
:1036800005F606F00706B6F1040C06D20EEB860C22
:10369000BDE870404CF0010C6047DFE80CF0090B0E
:1036A00002024FF000414FF00000A1F5002170BD73
:1036B00019461046012851EB010418BFD4F5001437
:1036C00084BF002001F0004170BD0808A0F5001182
:1036D0004FEA31017047000043004FEAD30C4FEA34
:1036E0003C0C43401FBF40070CF1605113F0FE4FEC
:1036F00070471CF0006F03D100200CF000417047B0
:103700000CF0004343EA507010B540EACC0000F0E2
:103710000EF800BF000000924FEA0001FFF7D5BF8E
:103720004FF000414FF00000A1F5002170470EF16D
:10373000020E2EF0030E5EF8044B244204D44FEA2E
:103740004102B2F17F4F11D84FEA4003B3F17F4FEE
:103750000CD80ED14FEAD07CB2F17F4F0CEB4C0C61
:103760000CF1020C08BF4CEBD17C04E04FF0080CCC
:1037700001E04FEAD17C0CEB4C0324FA03F404F093
:103780000704B4F1040C06D20EEB840CBDE8104023
:103790004CF0010C6047DFE80CF0070802024FF024
:1037A0000040A0F5800010BD0846420018BFD2F1CD
:1037B000807288BF00F0004010BD4FF04070E1EE15
:1037C000100A7047FF2141EAD050C0057047FEF74C
:1037D000DABE000002400000000000A0000000006F
:1037E00005400000000000C8000000000C40000080
:1037F0000000409C00000000194000000020BCBEFA
:103800000000000034400000BFC91B8E000000040F
:10381000B5400000504BCFD06607E2CF010000005A
:103820006C4100003E8251AADFEEA7340100000087
:10383000D9420000DCB5A0E23A301F97FFFFFFFF3E
:10384000B4450000FD25A0C8E9A3C14FFFFFFFFF5D
:10385000FF3F00000000008000000000FF3F00006C
:103860000000008000000000A438000800000020D4
:1038700020000000E8010008C438000820000020F3
:1038800028090000040200081C000000430000009A
:10389000F8FFFFFF0C0000000E0000000F0000000A
:1038A0002E000000000000000000000000000000EA
:1038B00000000000000001020304010203040607E7
:0438C00008090000F3
:04000005080001AD41
:00000001FF
